:020000040800F2
:100000003805002001010008D3150008AD140008D0
:10001000D115000899010008E91A00080000000045
:10002000000000000000000000000000EB170008C6
:100030009B01000800000000D5150008ED1700081E
:100040001B0100081B0100081B0100081B01000820
:100050001B0100081B0100081B0100081B01000810
:100060001B0100081B0100081B0100081B01000800
:100070001B0100081B0100081B0100081B010008F0
:100080001B0100081B0100081B0100081B010008E0
:100090001B0100081B0100081B0100081B010008D0
:1000A0001B0100081B0100081B0100081B010008C0
:1000B0001B0100081B0100081B0100081B010008B0
:1000C0001B0100081B0100081B0100081B010008A0
:1000D0001B010008BD1A00081B0100081B010008D5
:1000E0001B0100081B0100081B010008DFF80CD0F1
:1000F00000F040F800480047B91C0008380500200F
:100100000648804706480047FEE7FEE7FEE7FEE7B1
:10011000FEE7FEE7FEE7FEE7FEE7FEE771180008F0
:10012000ED000008D2B201E000F8012B491EFBD21D
:1001300070470022F6E710B513460A4604461946F2
:10014000FFF7F0FF204610BD30B50B4601460020FA
:100150002022012409E021FA02F59D4205D303FA89
:1001600002F5491B04FA02F52844151EA2F101020A
:10017000F1DC30BD064C074D06E0E06840F00103BD
:1001800094E8070098471034AC42F6D3FFF7B2FF6B
:10019000981D0008B81D0008FEE7704772B6FEE71C
:1001A00010B590F821100022022905D004218163A6
:1001B00080F82020012010BD01680B6823F00E0399
:1001C0000B6001680B6823F001030B6090F840306E
:1001D000C46B012101FA03F3636080F8211080F8F9
:1001E0002020104610BD000010B590F8211000240A
:1001F000022903D00421816301243DE001680A68DB
:1002000022F00E020A6001680A6822F001020A6008
:100210001A4A0168914201D1012121E0174A1432A2
:10022000914201D110211BE0144A2832914201D1A0
:10023000891515E0114A3C32914201D189140FE031
:100240000E4A5032914202D14FF4803108E00B4AFD
:100250006432914202D14FF4801101E04FF080717D
:10026000064A083A5160012180F82110002180F8E7
:100270002010416B01B18847204610BD08000240A4
:1002800070B5044600F00CF90546601C02D0044825
:100290000078044400F004F9401BA042FAD370BD7A
:1002A000040000202DE9F84FDFF8B891002409F18F
:1002B000040A0AF1040B23460F270BF1040EC9E0D0
:1002C0000125A5402A40AA427DD1674ED1F804C03D
:1002D000ACEB0608B44532D014DCBCF1030F3AD0C5
:1002E00009DCBCF1000F2AD0BCF1010F1CD0BCF11D
:1002F000020F31D11DE0BCF1110F17D0BCF1120F6C
:100300002AD119E0B8F5881F19D006DCB8F5803F6E
:1003100015D0B8F5801F1FD111E0B8F5001F0ED021
:10032000B8F5041F18D10AE0CB6815E0CB681B1D97
:1003300012E0CB6808330FE0CB680C330CE08B681D
:100340002BB1012B4FF0080303D0456104E00423D7
:1003500002E0056100E00023FF2A01D8064601E023
:1003600000F104064FEA840501D9A5F12005D6F86D
:10037000008007FA05FC28EA0C0803FA05F548EAAC
:100380000508C6F800804D68ED0062D5374DAE69AE
:1003900046F00106AE61AD6924F0030605F00105E3
:1003A0000095334D06EB050CDCF80850A607360F18
:1003B00007FA06F825EA0805DFF8B880404503D1BA
:1003C0004FF0000817E044E0DFF8AC80404502D170
:1003D0004FF001080FE0DFF8A480404502D14FF054
:1003E000020808E0DFF89880404502D14FF003088A
:1003F00001E04FF0040808FA06F848EA0508CCF8CE
:1004000008804D68D9F80060ED034D4601D51643CC
:1004100000E096432E604D68DAF80060AD03554663
:1004200001D5164300E096432E604D68DBF800606E
:10043000ED025D4601D5164300E096432E604D68FF
:10044000DEF80060AD02754601D5164300E0964324
:100450002E60641C0D682A46E5407FF431AFBDE88C
:10046000F88F00000004014000001110001002404D
:100470000000014000080140000C01400010014054
:1004800000140140C26821EA02030A4043EA024123
:10049000016170470AB1016170470904FBE7000080
:1004A000014880687047000004000020024881680D
:1004B000027811448160704704000020074810B59D
:1004C000016841F010010160032000F075F80F2071
:1004D00000F006F800F024F8002010BD00200240D3
:1004E00070B50D4D04464FF47A712878B1FBF0F0E9
:1004F0000A490968B1FBF0F000F09FFD48B9102CE3
:1005000007D200222146501E00F036F800206C6011
:1005100070BD012070BD000004000020100000200C
:100520000C4808B5816941F001018161816901F0E0
:1005300001010091C16941F08051C161C06900F0C1
:10054000805000900448416821F0E06141F0007162
:10055000416008BD0010024000000140002809DB96
:1005600000F01F02012191404009800000F1E020CD
:10057000C0F8001170470000F0B40E4B1B680C4629
:10058000C3F30223C3F10705042D00D90425191D67
:10059000072901D2002300E0DB1E012606FA05F13F
:1005A000491E214099409E40761E16403143F0BCC2
:1005B00001F0ACBA0CED00E0064900F00702086853
:1005C0004FF6FF03184040EA0220034A1043086038
:1005D000704700000CED00E00000FA050149012021
:1005E0000862704700000E4210B529A401461DCCD8
:1005F00086B08DE81D002AA02A4C006804900020D7
:10060000012923D002293AD010291DD1616822681E
:10061000D20119D5C1F38342C9031DF8020009D5DF
:10062000616804AAC1F34041515C1F4AB2FBF1F179
:10063000484301E01D4948436168490204D4400031
:100640005FF00301B0FBF1F006B010BD226AC2F307
:100650000121012903D1920701D5C803F4E702293A
:1006600005D1626A920702D549F64040ECE70329BA
:10067000EAD121688903E7D54FF22440E4E700F08E
:1006800033F96168C1F38131491C4900DAE70000A0
:1006900002030405060708090A0B0C0D0E0F1010C3
:1006A000010200000010024000127A0000093D0023
:1006B0002DE9F84305460078354CC00754D0E06971
:1006C0000026C00008D4E06940F08050E061E06995
:1006D000012600F0805000902E480168C90512D410
:1006E0000168804641F480710160FFF7D9FE07463A
:1006F00005E000BFFFF7D4FEC01B642823D8D8F85C
:100700000000C005F6D5206A10F4407021D0A988F9
:1007100001F4407181421CD0206A1F49012220F45B
:1007200040700A6000220A602062C00711D0FFF703
:10073000B7FE074641F2883808E000BFFFF7B0FE79
:10074000C11B414502D90320BDE8F883206A800718
:10075000F4D5206A696820F44070084320621EB115
:10076000E06920F08050E0612878800705D5606856
:10077000A96820F44040084360602878C00605D589
:100780006068E96820F48000084360600020DBE7CF
:100790000010024000700040400442422DE9F04742
:1007A0000F46050061D0434E306800F00700B842A4
:1007B00009D2306820F0070038433060306800F01C
:1007C0000700B84251D128683B4C810712D5400739
:1007D00003D5606840F4E06060602878000703D5C6
:1007E000606840F4605060606068A96820F0F000C4
:1007F000084360602878C00728D06868012810D0B6
:100800002168022810D0890700292EDA616821F0BA
:10081000030101436160FFF743FE804641F28839DE
:100820000DE021688903EFE78901EDE7FFF738FE66
:10083000A0EB0801494502D90320BDE8F0876068B4
:10084000696800F00C00B0EB810FEFD1306800F068
:100850000700B8420BD9306820F0070038433060F9
:10086000306800F00700B84201D00120E5E72878A1
:10087000400705D56068E96820F4E06008436060DF
:100880002878000706D56068296920F4605040EA9E
:10089000C100606000F038F86168084AC1F30311D4
:1008A000515CC8400649086006480068FFF718FE1A
:1008B0000020C2E70020024000100240801D000816
:1008C000100000200800002004480549006849681D
:1008D000044AC1F30221515CC84070471000002057
:1008E00000100240901D000804480549006849684E
:1008F000044AC1F3C221515CC84070471000002077
:1009000000100240901D000812A185B00FC98DE8AB
:100910000F0014A0144A006804905168134801F0B5
:100920000C03042B10D0082B0ED1C1F38343C90351
:100930001DF803000AD5516804AAC1F34041515C77
:100940000A4A5043B0FBF1F005B0704708494843EC
:10095000FAE7000002030405060708090A0B0C0D5C
:100960000E0F1010010200000010024000127A0069
:1009700000093D002DE9F84F040070D02078C04DEB
:10098000C00749D06868C0F38100012807D06868B3
:10099000C0F38100022809D16868C00306D5286821
:1009A000800339D560680028E7D035E06068B0F58D
:1009B000803F0BD010B1B0F5A02F11D0286820F4E3
:1009C00080302860286820F4802002E0286840F405
:1009D00080302860606890B1FFF762FD06460AE04B
:1009E000286840F480202860F0E700BFFFF758FD3A
:1009F000801B642873D828688003F7D50CE0FFF7C4
:100A00004FFD064605E000BFFFF74AFD801B642846
:100A1000F0D828688003F7D420789A4E80074FF0EA
:100A200001094FF0000839D5686810F00C0F07D0A5
:100A30006868C0F38100022809D16868C00306D441
:100A40002868800714D52069012808D110E02069A2
:100A5000B0B1C6F80090FFF723FD074605E00AE1B4
:100A6000FFF71EFDC01B0228C4D828688007F7D5F1
:100A70002868616920F0F80040EAC10028600DE0B4
:100A8000C6F80080FFF70CFD074604E0FFF708FDFD
:100A9000C01B022823D828688007F7D420780007D5
:100AA0002CD57948A169D9B1C0F80090FFF7F8FCBE
:100AB000074604E0FFF7F4FCC01B02280FD8686A61
:100AC0008007F7D571484FF4FA510068B0FBF1F098
:100AD000009000BF0098411E0091FAD20EE080E025
:100AE000C0F80080FFF7DCFC074604E0FFF7D8FC05
:100AF000C01B022875D8686A8007F7D420784007A1
:100B000060D5E8690027C00008D4E86940F080504B
:100B1000E861E869012700F0805000905C480168B6
:100B2000C90513D40168834641F480710160FFF761
:100B3000B7FC824606E000BFFFF7B2FCA0EB0A005C
:100B400064284ED8DBF80000C005F5D5E068012820
:100B50000AD008B1052813D0286A20F001002862C5
:100B6000286A20F0040002E0286A40F001002862B0
:100B7000E06841F2883B98B1FFF792FC82460BE0B7
:100B8000286A40F004002862EEE700BFFFF788FC07
:100B9000A0EB0A0159455AD8286A8007F6D50CE01F
:100BA000FFF77EFC824605E0FFF77AFCA0EB0A0126
:100BB00059454CD8286A8007F6D41FB1E86920F05F
:100BC0008050E861E06988B36968C1F38101022956
:100BD00044D00228C6F8608004D0FFF761FC0446C8
:100BE00038E034E0FFF75CFC074604E0FFF758FC10
:100BF000C01B02282BD828688001F7D4206AB0F5E2
:100C0000803F05D16868A16820F40030084368601F
:100C1000D4E908010843696821F474110843686045
:100C2000C6F86090FFF73CFC044606E025E000BFF4
:100C3000FFF736FC001B022809D828688001F7D589
:100C40001BE000BFFFF72CFC001B022802D9032089
:100C5000BDE8F88F28688001F4D40EE00128F7D0B1
:100C60006868226A00F48031914204D1616A00F41C
:100C70007010884201D00120EAE70020E8E7000078
:100C80000010024000004242800442421000002056
:100C900000700040F8B505004FF0000016460C4605
:100CA000009006D02CB100226946284600F019F8C1
:100CB00008B10120F8BD287B2070E87BE070697BDB
:100CC0006170A97BA17056B100F08EFCE070607875
:100CD00000F08AFC6070A07800F086FCA070002014
:100CE000F8BD2DE9F04791460C465FEA00084AD06E
:100CF00084B3D8F800004068400744D4404600F070
:100D000011FD4FF461620546B0FBF2F1B0FBF2F366
:100D100002FB13503C23B0FBF3F0B5FBF2F660701E
:100D200002FB1650B0FBF3F203FB1200A07018296F
:100D300031D31820B1FBF0F7B1FBF0F200FB121039
:100D40002070404600F0E7FC411C04D0A84202D9C4
:100D5000461B02E017E04FF0FF36A7EB071000EB51
:100D60004000C0EB001005EBC0152946404600F0DE
:100D700028FD40B9701C01D0711900E03146404691
:100D800000F00BFD10B10120BDE8F0873946404668
:100D900000F035FC00E02170B9F1000F0BD0207895
:100DA00000F022FC2070607800F01EFC6070A078DB
:100DB00000F01AFCA0700020E6E7000070B5040007
:100DC00003D0607C002610B105E0012070BD2674C0
:100DD000204600F043F802206074204600F010F92D
:100DE000042578BB204600F061FC58BB20684168B0
:100DF00021F007014160A06820B11748016821F087
:100E0000010101601448001F0168A26821F46071AB
:100E1000114301606068411C04D10120FFF7E4FB2D
:100E200080B1401E21688A6822F00F0242EA104217
:100E30008A602168CA6860F30F02CA60204600F029
:100E40004FFC08B16574C0E7E67301206073A073BE
:100E50006074002070BD0000306C004008B5006870
:100E6000084988420DD1FFF7B9FB0748C16941F035
:100E70000061C161C069054900F000600090012077
:100E8000086008BD00280040001002403C044242B7
:100E90002DE9F0410D4604003BD0C5B3207C01286C
:100EA0003AD04FF0010884F8108002206074E8788E
:100EB00072B300F090FBE073687800F08CFB607315
:100EC000A87800F088FBA073C2B2617BE07B00F0E1
:100ED00039FC20732870204600F024FC4FF4616137
:100EE000B0FBF1F1002518292DD91822B1FBF2F140
:100EF000A1EB011101EB4101C1EB011100EBC116A6
:100F00003146204600F05DFC0427C8B90BE000E044
:100F100004E00120BDE8F0810220FBE7E07368787F
:100F20006073A878CFE7204600F0F5FB411C0AD09B
:100F3000B04208D206490144204600F02EFC10B110
:100F400067742574E5E784F8118025740020E1E7D3
:100F5000805101002DE9F0410D46040024D01DB35D
:100F6000207C012823D04FF0010884F81080022053
:100F700060742878EAB100F02EFB4FF4616100FB49
:100F800001F6687800F027FBC0EB001006EB800646
:100F9000A87800F020FB35182946204600F011FC07
:100FA0000026042710BB0FE00120BDE8F0810220DD
:100FB000FBE74FF4616148436978C1EB011100EB35
:100FC0008100A9784518E7E72068416821F005010C
:100FD0004160204600F09FFB411C0AD0A84208D285
:100FE00006490144204600F0D8FB10B1677426740E
:100FF000DAE784F8118026740020D6E780510100DA
:1010000070B504000AD02068416821F008014160F1
:10101000FFF746FA05464FF47A7608E0012070BDE6
:10102000FFF73EFA401BB04201D9032070BD206893
:1010300040680007F4D5002070BD10B5401EB0F127
:10104000807F01D3012010BD4FF0E02460610F21AB
:10105000601700F05BFD0020A061072020610020E8
:1010600010BD7047704710F83D1F40780843704727
:10107000F8B5026804461068D168536910F00F0F84
:101080004FF0000553D003F0010601F49077374389
:101090005FD0C20705D0CA0503D5226C42F0010219
:1010A0002264420705D5DA0703D0226C42F002021F
:1010B0002264820705D5DA0703D0226C42F00402CD
:1010C0002264020707D501F02002324303D0226CCC
:1010D00042F008022264226C002A34D0800604D533
:1010E000880602D5204600F0E4FB20684069216CA8
:1010F000C0F38010090700D430B3204600F0C1FBD4
:101100002068416949061BD5416921F040014161D0
:10111000A06BA8B158494163A06BFFF765F80028A0
:1011200011D0A06B416B01B0BDE8F04008478306C9
:101130000FD58B060DD52046BDE8F84000F0B9BBB1
:101140002046FFF78FFFF8BD2046FFF78BFF256491
:10115000F8BD266B2023012E52D1C60650D5CE06EF
:101160004ED5106850680090506940062AD5A16B92
:10117000086840680004000CEAD0A68D8642E7D9D2
:10118000E0858869202818D0D06820F48070D0606D
:101190002068416921F0010141612068416921F025
:1011A0004001416184F83E3025632068C16821F028
:1011B0001001C160A06BFEF7F3FFA08DE18D401A16
:1011C00081B219E0A08DE18D401A81B2E08D002836
:1011D000BED00029BCD0D06820F49070D0602068C8
:1011E000426922F00102426184F83E3025632068A2
:1011F000C26822F01002C2602046FFF732FFF8BD3D
:1012000005062BD50D0629D594F83D002128F6D1E9
:10121000A068B0F5805F01D12069B0B1206A411C9F
:101220002162216800784860E08C401E0004000CB8
:10123000E084E4D12068C16821F08001C1602068A9
:10124000C16841F04001C160F8BD206A0088C0F368
:1012500008005060206A801C2062E5E74006F3D554
:101260004806F1D5D168204621F04001D16084F8CC
:101270003D3000F01AF9F8BD7318000870B504008D
:1012800004D094F83D00002510B106E0012070BDA7
:1012900084F83C50204600F023F8242084F83D00D8
:1012A0002068C16821F40051C160204600F05CFB59
:1012B0002068016921F4904101612068416921F0B1
:1012C0002A0141612068C16841F40051C160256470
:1012D000202084F83D0084F83E00002070BD00000E
:1012E00030B585B000240094019402940394006802
:1012F000184988422CD11848816941F480418161A4
:10130000816901F480410491816941F004018161A6
:101310008069124D00F0040004904FF400700090BA
:10132000022001900320039069462846FEF7BAFF89
:101330002815CDE90004694628460294FEF7B2FF5D
:101340002520FFF70BF9032211462520FFF714F99A
:1013500005B030BD003801400010024000080140D7
:1013600090F83E30202B0ED159B152B190F83C305C
:10137000012B08D0012380F83C300023036300F0E8
:101380004FBB0120704702207047000030B4006856
:101390001649884227D1164841880A0416D40246C5
:1013A0004C0412784FF0000304D50A2A0DD141F401
:1013B000004116E00D2A12D0C1F30D040D4D491C59
:1013C00089B22A554180C72900D9438009480122A2
:1013D00030BC4FF47A730649C83000F00DB841F4C0
:1013E00080414180F2E730BC704700000038014086
:1013F000000000202C0000202DE9F843044690F85E
:101400003D001F4616460D4620284CD1C5B1BEB141
:1014100094F83C00012846D0012084F83C004FF0AD
:101420000008C4F84080212084F83D00FFF738F818
:10143000A6848146E684A068B0F5805F03D004E00E
:101440000120BDE8F883206928B12E465FF0000531
:1014500084F83C800EE00026FAE78021204600F068
:10146000FAFAA0B9AEB116F8010B21684860E08C19
:10147000401EE084E08C4B464FF0000200970028AD
:10148000EBD14FF04001204600F0E5FA30B10320E7
:10149000D7E735F8020BC0F30800E6E7202084F810
:1014A0003D000020CDE70220CBE77047FEE70000BB
:1014B00070B586B0002418480094019402940394F7
:1014C000816941F010018161816901F0100104918D
:1014D000816941F020018161816901F0200104915D
:1014E000816941F00401816180690C4E00F00400C3
:1014F0004FF400550490002229463046FEF7CAFFFB
:1015000001200095CDE90104022003906946304690
:10151000FEF7C8FE06B070BD00100240001001408A
:101520001CB5002418480194164900940160611EFE
:10153000C0E90114FFF742FC08B1FEF72FFE1520A9
:101540008DF804008DF805408DF80640012201A9B0
:101550000D48FFF7FFFC08B1FEF720FE01208DF8D3
:1015600000008DF801008DF8020002468DF803405E
:1015700069460548FFF78CFC002801D0FEF70EFEF7
:101580001CBD000000280040180000200E4810B5C7
:101590000C4901604FF4E1314160002181600C226F
:1015A000C160C0E904128161C161FFF767FE08B143
:1015B000FEF7F4FDBDE81040012204490248FFF7A0
:1015C000CFBE000000380140F400002000000020E1
:1015D000FEE7FEE77047010901EB810100F00F0013
:1015E00000EB4100C0B27047002102E00A38C0B2EF
:1015F000491C0A28FAD2090740EA116070472DE910
:10160000F04104460025C07B627BA37B42E0012AB7
:1016100016D0032A14D0052A12D0072A10D0082A7F
:101620000ED00A2A0CD00C2A0AD0042A10D0062A7E
:101630000ED0092A0CD00B2A0AD0022A0DD028E09D
:101640001F2B0CD30C2A05D101221346401C20E08D
:101650001E2B04D30123521C1BE01C2B02D203F1CE
:10166000010316E011D183B29E0710D16426B3FBAB
:10167000F6F706FB173636B94FF4C876B3FBF6F724
:1016800006FB17331BB91D2303E01D2B01D10322D9
:1016900001236D1C8D42BAD3D1B2E0736173DAB20B
:1016A000A27300F04FF82073BDE8F08170B50446D6
:1016B000FEF7F6FE05464FF47A7606E0FEF7F0FEFA
:1016C000401BB04201D9032070BD206840688006ED
:1016D000F4D52068416841F010014160002070BDE0
:1016E00070B504460068416821F010014160FEF7C2
:1016F000D7FE05464FF47A7607E000BFFEF7D0FE2E
:10170000401BB04201D9032070BD206840688006AC
:10171000F4D5002070BD0168086A496A89B241EABF
:1017200000407047006881698AB2C1698BB28169E3
:1017300089B28A4203D0C06961F31F40704743EA0F
:1017400002407047F0B56424C1EBC1030927A5002E
:10175000072603EB01130329B3FBF7F100F5FA6049
:10176000114401440AD2401EB0FBF4F201EB900197
:10177000B0FBF5F0891A0844001D08E0B0FBF4F254
:1017800001EB9001B0FBF5F0891A0844801CB0FB16
:10179000F6F106FB1100C0B2F0BD70B50D4606466D
:1017A0000024FFF783FF48B93168280C08623168CC
:1017B000A8B248623046FFF793FF00B101242046EB
:1017C00070BD70B50D4606460024FFF76FFF48B99F
:1017D0003168280C88613168A8B2C8613046FFF7CB
:1017E0007FFF00B10124204670BD7047FEF75EBE4A
:1017F00070B594B028216846FEF79BFC14210AA816
:10180000FEF797FC00250F95092001241095009004
:10181000119512954FF4803004940694CDE901059A
:101820000226CDE907604FF4E01009906846FFF703
:10183000A1F808B172B6FEE70F20CDE90A064FF411
:101840008060CDE90C5002210AA80E95FEF7A6FF94
:1018500008B172B6FEE74FF40070CDE90F400FA853
:10186000FEF726FF002801D072B6FEE714B070BD67
:10187000704710B5406A0021C185C184FFF7F2FBB3
:1018800010BD0168CA6822F49072CA6001684A6992
:1018900022F001024A61016B012904D10168CA6882
:1018A00022F01002CA60202180F83E10002101635E
:1018B000704708B590F83E10222901D0022008BDDB
:1018C00082684FF480539A4201D1016921B1816A43
:1018D0009A421BD04AB10AE00268816A5268C2F398
:1018E00008020A80816A891C08E0026972B10268F4
:1018F000526802F07F020A70816A491C8162C18DC0
:10190000491E0904090CC18503D019E00268526818
:10191000F1E70168CA6822F02002CA600168CA685B
:1019200022F48072CA6001684A6922F001024A61A9
:10193000202180F83E10016B012903D0FFF726FD1E
:10194000002008BD002101630168CA6822F010026E
:10195000CA6001680A68D20602D50A68496800911F
:10196000818DFFF77EFBEBE770B5044600680169E7
:10197000E26821F44051114301612169A0680843E4
:10198000616908432168CA6841F20C639A430243C3
:10199000CA6020684169A26921F440711143416124
:1019A0001E492068884202D1FEF79EFF01E0FEF743
:1019B0008BFF00EBC00101EB001260686421800026
:1019C000B2FBF0F3B3FBF1F36FF018067343B2FB15
:1019D000F0F5B2FBF0F605EB8305322303EB0515BA
:1019E000B5FBF1F5B6FBF1F605F0F00505EB0615D4
:1019F000B2FBF0F6B2FBF0F0B0FBF1F06FF01802C2
:101A0000504306EB800003EB0010B0FBF1F02168BF
:101A100000F00F002844886070BD000000380140CD
:101A200081628285C28500210164222280F83E20E5
:101A300080F83C100168CA6842F48072CA6001688C
:101A40004A6942F001024A610068C16841F0200120
:101A5000C160002070472DE9F041984617460E46B8
:101A60000446069D1DE0681C1BD02DB1FEF718FD35
:101A7000A0EB0800A84214D92068C16821F4D071F5
:101A8000C1602068416921F001014161202084F892
:101A90003D0084F83E00002084F83C000320BDE8AF
:101AA000F0812068006836EA000004D00020B842C7
:101AB000D9D00020F3E70120F9E7000010B508486D
:101AC000FFF7D6FA0648FFF7CEFA2028FAD101220E
:101AD00004490348FFF744FC0028F8D110BD00007A
:101AE000F400002000000020FEE700000FB4054BCA
:101AF00010B503A9044A029800F028F810BC5DF85C
:101B000014FB0000A11C0008140000200907090EA6
:101B1000002804DB00F1E02080F80014704700F09A
:101B20000F0000F1E02080F8141D704702E008C8A3
:101B3000121F08C1002AFAD170477047002001E047
:101B400001C1121F002AFBD1704700002DE9FF4F91
:101B500089B09B460446002506E025280BD05A464E
:101B60000B999047641C6D1C20780028F5D10DB0AE
:101B70002846BDE8F08F0027B8460122474900E01B
:101B8000074314F8013F203B02FA03F00842F7D163
:101B900020782E2819D114F8010F47F004072A28BD
:101BA0000ED06FF02F022078A0F1300109290CD857
:101BB00008EB880102EB410100EB0108641CF2E72D
:101BC0000A98641C50F8048B0A9020780028CED024
:101BD000642808D0692806D075281ED05A460B996B
:101BE00090476D1C58E00A994FF00A0901C90A9103
:101BF000002802DA40422D2102E0390504D52B21CC
:101C00008DF82010012103E0F90704D02021F7E727
:101C10008A4608AE0DE00021FAE70A994FF00A095A
:101C200001C90A91F7E74946FEF78EFA303106F806
:101C3000011D0028F7D1ADEB060000F1200978075F
:101C400001D44FF00108C84502DDA8EB090000E00F
:101C500000208046002706E008A85A46C05D0B9980
:101C600090476D1C7F1C5745F6DB04E030205A4638
:101C70000B9990476D1CB8F10001A8F10108F5DC43
:101C800005E016F8010B5A460B9990476D1CB9F107
:101C90000001A9F10109F4DC641C65E709280100D1
:101CA00004490A685206FCD5024AC1B2121D1160ED
:101CB000704700000038014086B0FEF7FFFBFFF7D9
:101CC00097FDFFF7F5FBFFF761FCFFF729FC204DBF
:101CD0004FF47A764FF400543046FEF7D1FA21469D
:101CE0002846FEF7CFFB3046FEF7CAFA21462846C3
:101CF000FEF7C8FB17A0FFF7F9FE002205A9194857
:101D0000FEF7EFFF002205A91648FFF723F900228E
:101D100004A91448FEF7BEFF002204A91148FFF7EA
:101D2000B7F89DF814009DF810309DF816209DF826
:101D300015108DE80F009DF813109DF812309DF8D6
:101D4000112009A001F5FA61FFF7D0FEC4E70000F9
:101D500000100140616461736461736461730D0A12
:101D6000000000001800002025642E25642E256444
:101D70002D25643A25643A25642025640D0A000067
:101D8000000000000000000001020304060708092B
:101D90000000000001020304B81D0008000000203C
:101DA000180000002C1B0008D01D0008180000209F
:101DB000200500003C1B000800000000010000009E
:101DC00010000000000000000024F40000000000EB
:04000005080000ED02
:00000001FF
